S0150000576972656C6573734C696768742E73726563C9
S113000045C0000060C000005EC000005CC000008D
S11300105AC0000058C0000056C0000054C0000080
S113002052C0000050C000004EC000004CC0000090
S11300304AC0000048C0000046C0000044C00000A0
S113004042C0000040C000003EC000003CC00000B0
S11300503AC0000038C0000036C0000034C00000C0
S113006032C0000030C000002EC000002CC00000D0
S11300702AC0000028C0000029C20000E8C1000016
S113008022C0000020C000001EC0000011241FBEBA
S1130090CFEFD0E1DEBFCDBF11E0A0E0B1E0E0E7FB
S11300A0FBE000E00BBF02C007900D92A437B1073C
S11300B0D9F722E0A4E7B1E001C01D92AA37B20744
S11300C0E1F761D253C59CCF84E08EBD89E09DE306
S11300D09BBD8ABD80E187BF0895AF92BF92CF9246
S11300E0DF92EF92FF920F931F93CF93DF930091D0
S11300F0740110917501209176013091770183EBA1
S1130100E82E87E0F82E94E6C92ED12C40E9A42EDF
S1130110BB24B394F7013197EF01C370DD27209717
S1130120C9F4CF01B60156D2892B29F4CF01B50108
S113013051D2892B79F4013065E8160762EE26075F
S113014061E03607A0F01558224E31405FEFE51A02
S1130150F50AE0CF013883E3180781EE280781E030
S1130160380728F000581343214E3140EFCF68017F
S1130170790100389EED190798E22907310508F442
S1130180A7C000581E4D28423109CD2BD1F4CF0110
S113019064E670E01FD2892B31F4CF0160E971E08D
S11301A019D2892B71F400385BE3150756E2250751
S11301B0310508F490C0970186011A512F44310982
S11301C00EC001156AEE160764E22607310508F42D
S11301D082C0970186010058184C2D44310900381B
S11301E08EED180788E22807310508F477C0B901B5
S11301F0A80140585E4D6842710941159DE85907B0
S113020097E26907710508F46CC0B901A801405868
S11302105B466045710940388EED580788E26807EF
S1130220710508F463C0B901A8015A5469477109FA
S113023041159DE8590797E26907710508F45BC009
S1130240B901A801575D604A710940388EED58071D
S113025088E26807710508F453C0B901A801405841
S1130260554B694C710940389EED590798E269076E
S1130270710508F44AC0B901A8015459624F7109C3
S113028041158DE8580787E26807710508F442C0F4
S1130290B901A80151526A41714040389EED590795
S11302A098E269077105D8F1B901A80140585F4F78
S11302B06244714041158DE8580787E2680771056B
S11302C098F100581C482A4631408AE391E030C036
S11302D08EE091E02DC082E191E02AC086E191E0B8
S11302E027C08A019B018AE191E022C08A019B0117
S11302F08EE191E01DC08A019B0182E291E018C069
S11303008A019B0186E291E013C08A019B018AE283
S113031091E00EC08A019B018EE291E009C08A013E
S11303209B0182E391E004C08A019B0186E391E092
S113033041E0013851E5150751E02507310530F05A
S113034000581145214031094F5FF3CF50E001318E
S11303506EE016072105310530F000511E402109D9
S113036031095F5FF4CF60E00D33110521053105DC
S113037030F00C531109210931096F5FF5CF1F9338
S11303800F931F926F931F925F93FF93EF931F92AC
S11303904F939F938F938EE391E09F938F9341D1DB
S11303A08DB79EB70E960FB6F8949EBF0FBE8DBF45
S11303B0DF91CF911F910F91FF90EF90DF90CF903D
S11303C0BF90AF900895282F80917A0190E0019614
S11303D068EC70E013D1382F909179013917E1F36B
S11303E0E0917A01F0E0E558FE4F208380937A0192
S11303F080919A00806280939A0081E080937801D2
S1130400089590914A0280914B02981789F0E091E7
S11304104A02F0E0E45BFD4F208180914A0290E0C3
S1130420019668E270E0EAD080934A02822F089530
S113043080E0089581E0809398008FE9809399008B
S113044088E980939A0086E080939D0008951F9226
S11304500F920FB60F9211240BB60F925F936F9306
S11304607F938F939F93AF93BF93EF93FF93909159
S11304707A0180917901981791F08091790190E047
S1130480019668EC70E0BAD0E0917901F0E0E558AB
S1130490FE4F908190939C008093790107C08091D6
S11304A09A008F7D80939A0010927801FF91EF91CA
S11304B0BF91AF919F918F917F916F915F910F90B9
S11304C00BBE0F900FBE0F901F9018951F920F92A6
S11304D00FB60F9211240BB60F922F935F936F9365
S11304E07F938F939F93AF93BF93EF93FF938091E9
S11304F09B0084FF09C080914502909146020196B9
S1130500909346028093450280919B0083FF09C02B
S11305108091430290914402019690934402809307
S1130520430220919C0080914B0290E0019668E286
S113053070E064D090914A0298130AC080914702F7
S1130540909148020196909348028093470208C014
S1130550E0914B02F0E0E45BFD4F208380934B027B
S113056020934902FF91EF91BF91AF919F918F9199
S11305707F916F915F912F910F900BBE0F900FBEE3
S11305800F901F90189556DF9FDD789480E091E0DE
S1130590909377028093760290937502809374020D
S11305A011E6C3E6D1E017FD1EE11F5F96DD1F9241
S11305B01F93DF93CF9335D09FEF23ED80E39150CA
S11305C020408040E1F700C000000F900F900F9092
S11305D00F90E9CFAA1BBB1B51E107C0AA1FBB1F89
S11305E0A617B70710F0A61BB70B881F991F5A95BB
S11305F0A9F780959095BC01CD01089597FB072E2E
S113060016F4009406D077FD08D0E4DF07FC05D08B
S11306103EF4909581959F4F0895709561957F4F15
S11306200895CF93DF93CDB7DEB7FE013596619180
S11306307191AF01809176029091770203D0DF919E
S1130640CF9108952F923F924F925F926F927F9233
S11306508F929F92AF92BF92CF92DF92EF92FF92CE
S11306600F931F93CF93DF93CDB7DEB72C970FB6BD
S1130670F894DEBF0FBECDBF7C016B018A01FC0183
S113068017821682838181FFB0C1CE0101964C018D
S1130690F7019381F60193FD859193FF81916F0199
S11306A0882309F49EC1853239F493FD859193FF23
S11306B081916F01853221F4B70190E0C7D1E8CF71
S11306C0512C312C20E02032A0F48B3269F030F42C
S11306D0803259F0833269F420612CC08D3239F0B4
S11306E0803339F4216026C02260246023C028604E
S11306F021C027FD27C030ED380F3A3078F426FFAB
S113070006C0FAE05F9E300D1124532E13C08AE018
S1130710389E300D1124332E20620CC08E3221F409
S113072026FD5FC1206406C08C3611F4206802C027
S1130730883641F4F60193FD859193FF81916F0111
S11307408111C1CF982F9F7D9554933028F40C5F6D
S11307501F4FFFE3F9830DC0833631F0833771F007
S1130760833509F057C021C0F801808189830E5F69
S11307701F4F44244394512C540114C03801F2E017
S11307806F0E711CF801A080B18026FF03C0652D97
S113079070E002C06FEF7FEFC5012C874CD12C01B4
S11307A083012C852F77222E16C03801F2E06F0EBC
S11307B0711CF801A080B18026FF03C0652D70E094
S11307C002C06FEF7FEFC5012C872AD12C012C8545
S11307D02068222E830123FC19C0832D90E0481643
S11307E05906A0F4B70180E290E030D13A94F5CFF5
S11307F0F50127FC859127FE81915F01B70190E007
S113080025D131103A94F1E04F1A510841145104A2
S113081079F7DEC0843611F0893631F5F80127FF07
S113082007C060817181828193810C5F1F4F08C072
S113083060817181882777FD8095982F0E5F1F4F07
S11308402F76B22E97FF09C090958095709561958B
S11308507F4F8F4F9F4F2068B22E2AE030E0A401D3
S113086027D1A82EA81843C0853729F42F7EB22E8D
S11308702AE030E025C0F22FF97FBF2E8F36C1F079
S113088018F4883579F0ADC0803719F0883721F035
S1130890A8C02F2F2061B22EB4FE0DC08B2D846012
S11308A0B82E09C024FF0AC09F2F9660B92E06C037
S11308B028E030E005C020E130E002C020E132E071
S11308C0F801B7FE07C060817181828193810C5F5A
S11308D01F4F06C06081718180E090E00E5F1F4F62
S11308E0A401E6D0A82EA818FB2DFF77BF2EB6FED4
S11308F00BC02B2D2E7FA51450F4B4FE0AC0B2FCFD
S113090008C02B2D2E7E05C07A2C2B2D03C07A2CEB
S113091001C0752C24FF0DC0FE01EA0DF11D80817C
S1130920803311F4297E09C022FF06C073947394A6
S113093004C0822F867809F0739423FD12C020FF2F
S113094006C05A2C731418F4530C5718732C7314D0
S113095060F4B70180E290E02C8778D073942C8502
S1130960F6CF731410F4371801C0312C24FF11C0D2
S1130970B70180E390E02C8769D02C8522FF16C054
S113098021FF03C088E590E002C088E790E0B7014A
S11309900CC0822F867851F021FD02C080E201C094
S11309A08BE227FD8DE2B70190E050D0A51430F41E
S11309B0B70180E390E04AD05A94F8CFAA94F401A6
S11309C0EA0DF11D8081B70190E040D0A110F6CF6F
S11309D0332009F45DCEB70180E290E037D03A9439
S11309E0F7CFF7018681978102C08FEF9FEF2C9696
S11309F00FB6F894DEBF0FBECDBFDF91CF911F912C
S1130A000F91FF90EF90DF90CF90BF90AF909F90A9
S1130A108F907F906F905F904F903F902F900895AC
S1130A20FC010590615070400110D8F780959095B5
S1130A308E0F9F1F0895FC016150704001900110BA
S1130A40D8F7809590958E0F9F1F08950F931F934D
S1130A50CF93DF93182F092FEB018B8181FD03C006
S1130A608FEF9FEF20C082FF10C04E815F812C81E9
S1130A703D81421753077CF4E881F9819F012F5F80
S1130A803F4F39832883108306C0E885F985812F79
S1130A900995892B29F72E813F812F5F3F4F3F8393
S1130AA02E83812F902FDF91CF911F910F91089565
S1130AB0FA01AA27283051F1203181F1E8946F938B
S1130AC06E7F6E5F7F4F8F4F9F4FAF4FB1E03ED031
S1130AD0B4E03CD0670F781F891F9A1FA11D680FCF
S1130AE0791F8A1F911DA11D6A0F711D811D911D02
S1130AF0A11D20D009F468943F912AE0269F112477
S1130B003019305D3193DEF6CF010895462F4770DA
S1130B10405D4193B3E00FD0C9F7F6CF462F4F7035
S1130B20405D4A3318F0495D31FD4052419302D093
S1130B30A9F7EACFB4E0A695979587957795679539
S1130B40BA95C9F700976105710508959B01AC0139
S1130B500A2E06945795479537952795BA95C9F760
S1130B60620F731F841F951FA01D0895F894FFCF73
S1130B700000000300000000E301010200004A61DC
S1130B806E00466562004D617200417072004D61F5
S1130B9079004A756E004A756C00417567005365AB
S1130BA070004F6374004E6F7600446563005B25EC
S1130BB073202530326868752C2025752025303245
S1130BC06868753A2530326868753A253032686845
S1130BD0755D002020596F752077726F746520252C
S1070BE0630A0000A0
S9030000FC
