S0150000576972656C6573734C696768742E73726563C9
S113000045C0000061C000005FC000005DC000008A
S11300105BC0000059C0000057C0000055C000007C
S113002053C0000051C000004FC000004DC000008C
S1130030E7C1000049C0000047C0000045C00000FF
S113004043C0000041C000003FC000003DC00000AC
S11300503BC0000039C0000037C0000035C00000BC
S113006033C0000031C000002FC000002DC00000CC
S11300702BC0000029C0000091C4000050C400003F
S113008023C0000021C000001FC0000011241FBEB7
S1130090CFEFD0E1DEBFCDBF12E0A0E0B1E0EEE8EB
S11300A0F3E100E00BBF02C007900D92A036B10748
S11300B0D9F723E0A0E6B2E001C01D92AA3DB20741
S11300C0E1F7DAD40C94C5099BCFEF92FF920F931A
S11300D01F93CF93DF9300D000D0CDB7DEB78C0150
S11300E0BAD3AE014F5F5F4F6DE572E0C80198D59A
S11300F0009709F490C0AE014D5F5F4F60EF71E06F
S11301008FD58C016EE071E073D5892B21F483E1E6
S113011091E000D680C06FE171E0C80169D5892BF8
S1130120B9F4AE014D5F5F4F60EF71E080E090E0A5
S113013077D56CE271E05CD5892B29F419D185E27D
S113014091E0E8D568C019D18FE291E0E3D563C0AE
S113015066EC71E0C8014CD5892B39F48B819C8104
S113016036D18AE391E0D6D556C06EEA71E0C80173
S11301703FD5892BC1F4AE014D5F5F4F60EF71E055
S113018080E090E04DD5009709F445C00BD560930D
S1130190720270937302809374029093750284E4E4
S11301A091E0B8D538C06FE471E0C80121D5892B3E
S11301B001F5AE014D5F5F4F60EF71E080E090E0CC
S11301C02FD58C01AE014D5F5F4F60EF71E080E091
S11301D090E026D57C0101151105E9F00097D9F0CE
S11301E0C801C3D48C01C701C0D4BC01C801C9D0A3
S11301F012C085E591E08ED58FE591E08BD581E73E
S113020091E088D585E991E085D583EB91E082D5AD
S11302108BEC91E07FD50F900F900F900F90DF91B2
S1130220CF911F910F91FF90EF900895AA9A8AE1C0
S11302308A95F1F700C0AA980895CF93C82F8FE349
S11302409FE10197F1F700C0000085B39C2F907FD8
S11302508E70892B85BBEADF25B330E1C39FC001D3
S11302601124922F9E70892B85BBE0DFCF910895D6
S1130270CF93C82F8FE39FE10197F1F700C00000EF
S113028085B38E7081609C2F907F892B85BBCEDFD8
S113029025B32E70216030E1C39FC0011124822B4D
S11302A085BBC4DFCF9108950F931F93CF93DF9342
S11302B08C01FC018081811109C00EC0D9DFC017F7
S11302C0D10751F089918111F9CF06C0D1DFE8013E
S11302D02196005F1F4FF6CFDF91CF911F910F91B1
S11302E0089515BA87EF84BB80E382B92FEF8EE5BA
S11302F095E0215080409040E1F700C00000A898AC
S11303002FEF8EE595E0215080409040E1F700C04A
S1130310000080E385BB8ADF8FE39CE90197F1F756
S113032000C0000080E385BB81DF8FE39CE9019777
S1130330F1F700C0000080E385BB78DF8FE39CE920
S11303400197F1F700C0000080E285BB6FDF9FEFEB
S113035023ED80E3915020408040E1F700C000008D
S11303608CE06BDF81E069DF81EE91E09DCF089541
S113037081E080936002DE9A089510926002DE9814
S11303800895F82FE92F15C023B12F7C206123B9DC
S11303902F2F3E2F009789F04F2F5E2F4150510988
S11303A041155105D9F70EC02150310921153105E8
S11303B0D9F76150710940F7089523B12F7C206269
S11303C023B9F7CF43B14F7C406243B9EDCFCF930C
S11303D0DF93EC0181E031DF80E82FDF41D064DF7F
S11303E040E150E0BE0181E692E00BD4109271022C
S11303F080EC23DF81E692E057DFDF91CF9108950F
S11304001F920F920FB60F9211248F939F93AF9365
S1130410BF938091720290917302A0917402B09183
S113042075020196A11DB11D80937202909373020F
S1130430A0937402B09375021DBC1CBCBF91AF9114
S11304409F918F910F900FBE0F901F90189585E08C
S11304508EBD89E09DE39BBD8ABD80E187BF089581
S11304608F929F92AF92BF92CF92DF92EF92FF92C0
S11304700F931F93CF93DF93C0907202D0907302B7
S1130480E0907402F0907502C3EBD7E00F2EF4E60F
S1130490BF2EF02D00E911E001C02196AE014150BC
S11304A05109FA01E370FF273097B9F59A0136959F
S11304B0279536952795ABE7B4E134D39695879580
S11304C0B89E9001B99E300D112442175307A9F428
S11304D09A01329522952F7023273F702327AEE38C
S11304E0BAE020D39C01209FC001219F900D309F32
S11304F0900D11244817590781F431E0C31635E8EB
S1130500D30632EEE30631E0F306C8F045E8D41A28
S113051042EEE40A41E0F40AC0CF61E8C61663E3A0
S1130520D60661EEE60661E0F60660F070E8C71AEA
S113053073E3D70A71EEE70A71E0F70AAECF46011A
S1130540570102C04601570180E888168EED9806CF
S113055088E2A806B10408F4D6C07501640190E8E5
S1130560C91A9EEDD90A98E2E90AF108EF2BD9F5E8
S11305709A013695279536952795ABE7B4E1D2D203
S11305809695879564E6689F9001699F300D1124C4
S113059042175307B9F49A01329522952F702327F5
S11305A03F702327AEE3BAE0BDD220E931E0BC01BD
S11305B0629FC001639F900D729F900D1124481794
S11305C0590789F470E8C7167BE3D70676E2E70695
S11305D0F10408F49BC0750164018AE1D81A8FE420
S11305E0E80AF10811C0C1149AEED90694E2E906AA
S11305F0F10408F48EC07501640120E8C21A28ECE5
S1130600D20A2DE4E20AF10830E8C3163EEDD3061F
S113061038E2E306F10408F47FC0D701C60180582C
S11306209E4DA842B10981154DE8940747E2A407FD
S1130630B10508F474C0D701C60180589B46A04593
S1130640B10980385EED950758E2A507B10508F4B5
S11306506BC0D701C6019A54A947B10981156DE849
S1130660960767E2A607B10508F463C0D701C6017F
S1130670975DA04AB10980387EED970778E2A70715
S1130680B10508F45BC0D701C6018058954BA94C4D
S1130690B10980382EED920728E2A207B10508F4CB
S11306A052C0D701C6019459A24FB10981153DE842
S11306B0930737E2A307B10508F44AC0D701C6017E
S11306C09152AA41B14080384EED940748E2A40704
S11306D0B10508F442C0D701C60180589F4FA24417
S11306E0B14081155DE8950757E2A507B105D0F142
S11306F060E8C61A6CE8D60A6AE6E60A61E0F60A19
S11307008EE192E033C082EF91E030C086EF91E059
S11307102DC086EF91E02AC08AEF91E027C06C01DA
S11307207D018EEF91E022C06C017D0182E092E0B8
S11307301DC06C017D0186E092E018C06C017D0152
S11307408AE092E013C06C017D018EE092E00EC05D
S11307506C017D0182E192E009C06C017D0186E1BA
S113076092E004C06C017D018AE192E071E8C71651
S113077071E5D70671E0E706F10490F021E030E876
S1130780C31A31E5D30A31E0E30AF1082F5F41E8E7
S1130790C41641E5D40641E0E406F10480F701C043
S11307A021E051E1C5165EE0D506E104F10480F0D4
S11307B030E060E1C61A6EE0D60AE108F1083F5F56
S11307C071E1C7167EE0D706E104F10490F701C099
S11307D030E04DE3C416D104E104F10470F040E0CC
S11307E05CE3C51AD108E108F1084F5F6DE3C61652
S11307F0D104E104F104A0F701C040E01F92CF92BC
S11308001F924F931F923F931F922F939F938F9307
S113081082E292E09F938F931F9281E18F9382E80B
S113082092E09F938F93A3D28DB79EB740960FB655
S1130830F8949EBF0FBE8DBF82E892E0DF91CF9106
S11308401F910F91FF90EF90DF90CF90BF90AF90EA
S11308509F908F90089504DE9F938F9381E492E09C
S11308609F938F9346D20F900F900F900F900895FF
S1130870482F2091780230E0C901019668EC70E0BD
S11308803ED1282F909177022917E1F3E091780265
S1130890F0E0E153FD4F408380937802EAE9F0E011
S11308A080818062808381E08093760208959091B4
S11308B0800280918102981309C08091D303882318
S11308C0E9F081508093D3038AE00895E091800297
S11308D0F0E0ED56FD4F20818091800290E001967A
S11308E06CE370E00CD1809380022A3049F480914B
S11308F0D30381508093D303822F08958AE008950F
S1130900822F089583E08093980080E48093990077
S113091088E980939A0086E080939D0008951F9251
S11309200F920FB60F9211240BB60F925F936F9331
S11309307F938F939F93AF93BF93EF93FF93909184
S1130940780280917702981791F08091770290E075
S1130950019668EC70E0D3D0E0917702F0E0E153C7
S1130960FD4F908190939C008093770207C0EAE941
S1130970F0E080818F7D808310927602FF91EF9169
S1130980BF91AF919F918F917F916F915F910F90E4
S11309900BBE0F900FBE0F901F9018951F920F92D1
S11309A00FB60F9211240BB60F922F933F935F93C0
S11309B06F937F938F939F93AF93BF93EF93FF9323
S11309C080919B0084FF09C080917B0290917C02FE
S11309D0019690937C0280937B0280919B0083FF1D
S11309E009C08091790290917A02019690937A02DB
S11309F08093790220919C008091810290E001967D
S1130A006CE370E07CD0382F2A3029F49091D30322
S1130A109F5F9093D30390918002391311C080910A
S1130A20D303811103C081E08093D30380917D02BD
S1130A3090917E02019690937E0280937D0208C07D
S1130A40E0918102F0E0ED56FD4F20838093810216
S1130A5020937F02FF91EF91BF91AF919F918F916E
S1130A607F916F915F913F912F910F900BBE0F90EB
S1130A700FBE0F901F90189545DFE9DC32DC7894A7
S1130A8080E48ABB80E091E09093D7038093D603FF
S1130A909093D5038093D40301E612E0C6E4D2E038
S1130AA00F2EFAEFEF2EF02DF0906002D9DC1F9399
S1130AB00F931F92FF929F938F93DF93CF9319D13C
S1130AC08DB79EB708960FB6F8949EBF0FBE8DBF24
S1130AD0FE2C8091D303882331F087E993E0E4D09E
S1130AE087E993E0F2DA9FEF29EF80E0915020400C
S1130AF08040E1F700C00000FA9459F7D5CF97FB86
S1130B00072E16F4009406D077FD08D01AD007FCFF
S1130B1005D03EF4909581959F4F08957095619509
S1130B207F4F0895A29FB001B39FC001A39F700D92
S1130B30811D1124911DB29F700D811D1124911DE1
S1130B400895AA1BBB1B51E107C0AA1FBB1FA61710
S1130B50B70710F0A61BB70B881F991F5A95A9F762
S1130B6080959095BC01CD010895FC0188279927B3
S1130B70E89421912032E9F3293010F02E30C8F3A3
S1130B802B3239F02D3231F4689403C085D0820FB2
S1130B90911D219120532A30C8F31EF4909581951C
S1130BA09F4F08951F93FC0199278827BC01E8945F
S1130BB011911032E9F3193010F01E30C8F31B32D2
S1130BC049F01D3241F4689405C051D0610F711D84
S1130BD0811D911D119110531A30B8F33EF4909574
S1130BE08095709561957F4F8F4F9F4F1F9108950A
S1130BF0FB01DC018D91019080190110D9F3990B4F
S1130C000895FB01DC014150504048F001900D92E1
S1130C100020C9F701C01D9241505040E0F70895EB
S1130C20FA01A191B081009719F41097E1F0CD0178
S1130C30DC01CD010D90002011F4C00113C0FB01B3
S1130C402191222319F02015D9F7F3CFFB0121912B
S1130C50201519F41E92119606C02223C1F70D9097
S1130C600020A1F7D001FA01A193B0830895592F70
S1130C70482F372F262F660F771F881F991F660F5F
S1130C80771F881F991F620F731F841F951F660F9C
S1130C90771F881F991F08957AE0979F902D879F4B
S1130CA0802D910D112408950F931F93CF93DF93FB
S1130CB08C01E091D403F091D503838180FD03C0BE
S1130CC080E090E011C0C02FD12F8091D403909187
S1130CD0D5038DD28F3F2FEF920791F389930A9713
S1130CE0A1F721971882C801DF91CF911F910F912D
S1130CF00895CF93DF93CDB7DEB7FE0135966191AA
S1130D007191AF018091D6039091D7036CD0DF919C
S1130D10CF9108950F931F93CF93DF93E091D60360
S1130D20F091D703238121FF1BC0EC0100E010E008
S1130D3089916091D6037091D703DB011896ED91E8
S1130D40FC911997882331F00995892B89F30FEFCA
S1130D501FEFEECF8AE00995892B11F4C80102C078
S1130D608FEF9FEFDF91CF911F910F9108950F9314
S1130D701F93CF93DF93CDB7DEB72E970FB6F894BA
S1130D80DEBF0FBECDBF0D891E898F89988D26E0E9
S1130D902C831A83098397FF02C080E090E80197AF
S1130DA09E838D83AE01455E5F4F698D7A8DCE0142
S1130DB0019619D04D815E8157FD0AC02F81388577
S1130DC0421753070CF49A01F801E20FF31F108243
S1130DD02E960FB6F894DEBF0FBECDBFDF91CF9134
S1130DE01F910F9108952F923F924F925F926F92AD
S1130DF07F928F929F92AF92BF92CF92DF92EF92A7
S1130E00FF920F931F93CF93DF93CDB7DEB72C9749
S1130E100FB6F894DEBF0FBECDBF7C016B018A0113
S1130E20FC0117821682838181FFB0C1CE01019635
S1130E304C01F7019381F60193FD859193FF819114
S1130E406F01882309F49EC1853239F493FD85919D
S1130E5093FF81916F01853221F4B70190E005D2AF
S1130E60E8CF512C312C20E02032A0F48B3269F0F1
S1130E7030F4803259F0833269F420612CC08D3211
S1130E8039F0803339F4216026C02260246023C005
S1130E90286021C027FD27C030ED380F3A3078F4A0
S1130EA026FF06C0FAE05F9E300D1124532E13C0B6
S1130EB08AE0389E300D1124332E20620CC08E320D
S1130EC021F426FD5FC1206406C08C3611F420682D
S1130ED002C0883641F4F60193FD859193FF819118
S1130EE06F018111C1CF982F9F7D9554933028F4C1
S1130EF00C5F1F4FFFE3F9830DC0833631F0833756
S1130F0071F0833509F057C021C0F80180818983CD
S1130F100E5F1F4F44244394512C540114C03801D4
S1130F20F2E06F0E711CF801A080B18026FF03C0AF
S1130F30652D70E002C06FEF7FEFC5012C874CD1A7
S1130F402C0183012C852F77222E16C03801F2E064
S1130F506F0E711CF801A080B18026FF03C0652DBF
S1130F6070E002C06FEF7FEFC5012C872AD12C01FE
S1130F702C852068222E830123FC19C0832D90E048
S1130F8048165906A0F4B70180E290E06ED13A9475
S1130F90F5CFF50127FC859127FE81915F01B7010B
S1130FA090E063D131103A94F1E04F1A51084114A2
S1130FB0510479F7DEC0843611F0893631F5F80131
S1130FC027FF07C060817181828193810C5F1F4F6D
S1130FD008C060817181882777FD8095982F0E5F06
S1130FE01F4F2F76B22E97FF09C09095809570956C
S1130FF061957F4F8F4F9F4F2068B22E2AE030E0DB
S1131000A40165D1A82EA81843C0853729F42F7EE2
S1131010B22E2AE030E025C0F22FF97FBF2E8F36A2
S1131020C1F018F4883579F0ADC0803719F08837ED
S113103021F0A8C02F2F2061B22EB4FE0DC08B2D3D
S11310408460B82E09C024FF0AC09F2F9660B92E71
S113105006C028E030E005C020E130E002C020E115
S113106032E0F801B7FE07C060817181828193810B
S11310700C5F1F4F06C06081718180E090E00E5FBD
S11310801F4FA40124D1A82EA818FB2DFF77BF2E33
S1131090B6FE0BC02B2D2E7FA51450F4B4FE0AC04F
S11310A0B2FC08C02B2D2E7E05C07A2C2B2D03C03C
S11310B07A2C01C0752C24FF0DC0FE01EA0DF11D30
S11310C08081803311F4297E09C022FF06C0739405
S11310D0739404C0822F867809F0739423FD12C0A0
S11310E020FF06C05A2C731418F4530C5718732C91
S11310F0731460F4B70180E290E02C87B6D0739447
S11311002C85F6CF731410F4371801C0312C24FF4A
S113111011C0B70180E390E02C87A7D02C8522FF73
S113112016C021FF03C088E590E002C088E790E084
S1131130B7010CC0822F867851F021FD02C080E2F5
S113114001C08BE227FD8DE2B70190E08ED0A5149B
S113115030F4B70180E390E088D05A94F8CFAA9491
S1131160F401EA0DF11D8081B70190E07ED0A11059
S1131170F6CF332009F45DCEB70180E290E075D05C
S11311803A94F7CFF7018681978102C08FEF9FEFE2
S11311902C960FB6F894DEBF0FBECDBFDF91CF9172
S11311A01F910F91FF90EF90DF90CF90BF90AF9081
S11311B09F908F907F906F905F904F903F902F9073
S11311C00895FC010590615070400110D8F7809596
S11311D090958E0F9F1F0895FC01615070400190FF
S11311E00110D8F7809590958E0F9F1F0895CF9387
S11311F0DF93EC012B8120FF33C026FF0AC02F7B35
S11312002B838E819F8101969F838E838A8190E0B8
S113121029C022FF0FC0E881F9818081992787FDC9
S11312209095009719F420622B831AC03196F983A4
S1131230E8830EC0EA85FB85099597FF09C02B81D9
S1131240019611F480E101C080E2822B8B8308C0F7
S11312502E813F812F5F3F4F3F832E83992702C00A
S11312608FEF9FEFDF91CF9108950F931F93CF934B
S1131270DF93182F092FEB018B8181FD03C08FEFC2
S11312809FEF20C082FF10C04E815F812C813D8181
S1131290421753077CF4E881F9819F012F5F3F4F88
S11312A039832883108306C0E885F985812F099541
S11312B0892B29F72E813F812F5F3F4F3F832E8358
S11312C0812F902FDF91CF911F910F910895FA01F3
S11312D0AA27283051F1203181F1E8946F936E7F71
S11312E06E5F7F4F8F4F9F4FAF4FB1E03ED0B4E062
S11312F03CD0670F781F891F9A1FA11D680F791FA3
S11313008A1F911DA11D6A0F711D811D911DA11DB3
S113131020D009F468943F912AE0269F11243019C3
S1131320305D3193DEF6CF010895462F4770405D5E
S11313304193B3E00FD0C9F7F6CF462F4F70405D0D
S11313404A3318F0495D31FD4052419302D0A9F768
S1131350EACFB4E0A6959795879577956795BA9562
S1131360C9F700976105710508959B01AC010A2E28
S113137006945795479537952795BA95C9F7620FFF
S1111380731F841F951FA01D0895F894FFCFBE
S113138E00000003000000003804570400007069D8
S113139E6E670070696E673F20706F6E6721006C18
S11313AE6967687400206C69676874206F6E00202A
S11313BE6C69676874206F666600207365742074A8
S11313CE65787400207365742074696D65210073EB
S11313DE6F756E6400436F6D6D616E64733A0020B9
S11313EE70696E67202D206B656570616C6976651A
S11313FE00206C69676874203C6F6E7C6F66663E75
S113140E202D207475726E206C69676874206F6E5F
S113141E2F6F6666002074696D65203C7365633EAC
S113142E202D207365742065706F63686520746960
S113143E6D65002074657874203C746578743E2064
S113144E2D206C6364207465787400207374617449
S113145E73202D207072696E742073746174730A14
S113146E002020202057656C636F6D65202020209E
S113147E20004A616E00466562004D617200417043
S113148E72004D6179004A756E004A756C004175A3
S113149E6700536570004F6374004E6F76004465A9
S11314AE6300257320253032686875202530326834
S11314BE68753A2530326868753A25303268687531
S11314CE005B25735D005B25735D206C6967687432
S11314DE5B25645D20746578745B25735D0A00007A
S9030000FC
